:020000040800F2
:100000000050002091140008311400083314000837
:1000100035140008371400083914000800000000E7
:100020000000000000000000000000003B14000879
:100030003D140008000000003F14000841140008AF
:10004000D9140008D9140008D9140008D9140008DC
:10005000D9140008D9140008D9140008D9140008CC
:10006000D9140008D9140008D9140008D9140008BC
:10007000D9140008D9140008D9140008D9140008AC
:10008000D9140008D9140008D9140008D91400089C
:10009000D9140008D9140008D9140008D91400088C
:1000A000D9140008D9140008D9140008D91400087C
:1000B000D9140008D9140008D9140008D91400086C
:1000C000D9140008D9140008D9140008D91400085C
:1000D000D9140008D9140008D9140008D91400084C
:1000E000D9140008D9140008D91400080000000031
:1000F0000000000000000000000000000000000000
:0C01000000000000000000005FF808F1A3
:10010C0010B5054C237833B9044B13B10448AFF345
:10011C0000800123237010BD0C00002000000000A3
:10012C003415000808B5034B1BB103490348AFF362
:10013C00008008BD000000001000002034150008ED
:10014C0038B50E4B054618784FF47A73B3FBF0F3C1
:10015C000B4A1068B0FBF3F000F0B8F9044658B93C
:10016C000F2D09D8024629464FF0FF3000F07AF9DE
:10017C00044B20461D6038BD012038BD0000002016
:10018C000800002004000020074A08B5136803206B
:10019C0043F01003136000F053F90020FFF7D0FF79
:1001AC0001F0B6F8002008BD00200240034A044BC1
:1001BC0011681B780B441360704700BF28000020A7
:1001CC0000000020014B1868704700BF2800002079
:1001DC0038B50446FFF7F6FF0546631C1EBF044BFB
:1001EC001B78E418FFF7EEFF401B8442FAD838BDA9
:1001FC0000000020002373B5019390F82430012BEC
:10020C0074D001234D6880F82430062D02684FEA23
:10021C0085030C6825D82B441F25566B053B9D4048
:10022C0026EA050504FA03F32B435363092C4FEA22
:10023C0044038D682FD907262344D1681E3B9E406A
:10024C0021EA060105FA03F30B43D360A4F1100372
:10025C00012B2BD90023002280F82420184602B051
:10026C0070BD0C2D0BD82B441F25166B233B9D40CA
:10027C0026EA050504FA03F32B431363D6E72B4454
:10028C001F25D66A413B9D4026EA050504FA03F377
:10029C002B43D362CAE70726116923449E4021EA07
:1002AC00060105FA03F30B431361CFE7104B9A4297
:1002BC0016D193681B02CDD49368102C43F4000321
:1002CC009360C7D10B4B0C4A1B68B3FBF2F20A23A9
:1002DC0053430193019B002BBCD0019B013BF8E7DE
:1002EC00836A43F0200383620123B4E70223B5E75A
:1002FC00002401400800002040420F0038B503687C
:10030C0004469A68D20701D4002038BD9A6822F0BE
:10031C0001029A60FFF756FF054623689B68DB07CE
:10032C00F2D5FFF74FFF401B0228F6D9A36A012034
:10033C0043F01003A362E36A43F00103E36238BDA8
:10034C0070B50446002871D0836A23B9C36280F863
:10035C00243000F0FFFF2046FFF7D0FFA36A13F014
:10036C00100FA36A64D1002862D1E16923F4885389
:10037C00626823F0020343F002030A43A168A362FC
:10038C00E368B1F5807F42EA430238D0012914BFFB
:10039C0006464FF480766569012D07D1002B30D1CC
:1003AC00A369013B46EA433545F400662368B1F581
:1003BC00807F5D6825F4694545EA06055D609E68A9
:1003CC001D4D05EA060545EA02059D6001D001298F
:1003DC0020D1216901390905DD6A25F4700529430D
:1003EC00D9629968154B0B409A4215D10023E362F0
:1003FC00A36A23F0030343F00103A36270BD0E460E
:10040C00C9E7A36A43F02003A362E36A43F0010344
:10041C00E362CBE70021DFE7A36A23F0120343F08A
:10042C001003A362E36A43F00103E362012070BD91
:10043C0043F01003A362F9E7FDF7E1FFFE0E1FFF87
:10044C00074A0002D36800F4E06023F4E0631B0465
:10045C001B0C43F0BF6343F400330343D36070477A
:10046C0000ED00E0174B30B5DC68C4F30224C4F196
:10047C000703251D042B28BF0423062D4FF001056F
:10048C0098BF002405FA03F303F1FF3388BF033C44
:10049C001940A14005FA04F4013C2240002842EA2C
:1004AC0001024FEA0212AFBF00F16040064B00F0B0
:1004BC000F00D2B2A5BFD2B200F561401A5480F839
:1004CC00002330BD00ED00E014ED00E00138B0F188
:1004DC00807F0AD2F021064B064A586082F823101E
:1004EC000020072298601A6070470120704700BFF7
:1004FC0010E000E000ED00E02DE9F74F0022164679
:10050C00654BDFF8A4E1DFF8A4C14FF001080C68DB
:10051C0008FA06F808EA0404A0457FD14D68122DAC
:10052C0000F0AF8000F28880022D00F0A7807CD80C
:10053C00002D00F08E80012D00F09E804FF00F09F1
:10054C00FF2C93BF824606F18045083DD0F800B0E1
:10055C0092BFB500D0F804B0AD0009FA05F82BEA4B
:10056C00080802FA05F588BF00F1040A48EA0505F7
:10057C00CAF80050D1F804A01AF0805F4ED0474D55
:10058C00464FAD6926F0030845F00105BD61BD6914
:10059C0008F1804805F00105019508F5803806F052
:1005AC00030B019D4FEA8B0BD8F8085009FA0BF995
:1005BC0025EA09093A4DA84268D005F58065A8429C
:1005CC0066D005F58065A84264D005F58065A84223
:1005DC000CBF0325042505FA0BF545EA0905C8F8F7
:1005EC0008501D681AF4803F14BF2543A5431D60B5
:1005FC005D681AF4003F14BF2543A5435D609D68F8
:10060C001AF4801F14BF2543A5439D60DD681AF4BE
:10061C00001F14BF2C4325EA0404DC600136102EA5
:10062C007FF473AF03B0BDE8F08F032D22D0112DF2
:10063C0084D1CA68043281E71A4FBD4209D012D85E
:10064C00DFF86C904D4504D009F580394D457FF4A9
:10065C0075AF8A68C2B1012A0CBFC0F81080C0F80F
:10066C00148008226AE77545F3D06545F1D0DFF8B0
:10067C004490EBE7002261E7CA685FE7CA6808327A
:10068C005CE7CA680C3259E7042257E70025A2E759
:10069C000125A0E702259EE700040140001002405E
:1006AC000008014000002110000031100000321041
:1006BC0000001110000022100AB1016170470904FA
:1006CC00FBE7C3685940C1607047000003682DE91F
:1006DC00F341DB07054610D42B689F075ED42B68CB
:1006EC00190700F195802B685A0700F1BF80EA6961
:1006FC00002A40F02D81002014E0904C636803F038
:10070C000C03042B07D0636803F00C03082B0CD1EB
:10071C006368DE0309D523689C03DDD56B68002B69
:10072C00DAD1012002B0BDE8F0816B68B3F5803FEF
:10073C0010D1236843F480332360FFF743FD064652
:10074C0023689803C8D4FFF73DFD801B6428F7D9B4
:10075C000320E7E79BB9236823F4803323602368E5
:10076C0023F480232360FFF72DFD064623689903AD
:10077C00B2D5FFF727FD801B6428F7D9E8E7B3F55E
:10078C00A02F236803D143F480232360D1E723F403
:10079C0080332360236823F48023CDE7674C6368A0
:1007AC0013F00C0F07D0636803F00C03082B10D167
:1007BC006368DA030DD423689B0702D52B69012BE0
:1007CC00AFD123686A6923F0F80343EAC2032360BC
:1007DC0085E72A695A4B6AB101221A60FFF7F2FCCD
:1007EC00064623689F07ECD4FFF7ECFC801B02281D
:1007FC00F7D9ADE71A60FFF7E5FC064623689807C2
:10080C007FF56DAFFFF7DEFC801B0228F6D99FE762
:10081C00AA694A4C4B4BDAB101221A60FFF7D2FCA1
:10082C000646636A9B070DD54FF4FA52464B1B687C
:10083C00B3FBF2F3019300BF019B5A1E0192002BF4
:10084C00F9D150E7FFF7BEFC801B0228E9D97FE7FE
:10085C001A60FFF7B7FC0646636A9F077FF543AF44
:10086C00FFF7B0FC801B0228F6D971E7334CE36923
:10087C00D80024D40127E36943F08053E361E36992
:10088C0003F080530093009B304E3368D90518D584
:10089C00EB68012B26D1236A43F001032362FFF797
:1008AC0091FC41F288368046236A9B073FD5002F86
:1008BC003FF41DAFE36923F08053E36117E7002792
:1008CC00E2E7336843F480733360FFF77BFC8046C8
:1008DC003368DA05DCD4FFF775FCA0EB080064285C
:1008EC00F6D935E7ABB9236A41F2883823F0010316
:1008FC002362236A23F004032362FFF763FC06469A
:10090C00236A9807D3D5FFF75DFC801B4045F7D9C8
:10091C001EE7052B236A03D143F004032362BAE7D5
:10092C0023F001032362236A23F00403B6E7FFF7E5
:10093C0049FCA0EB0800B042B6D909E70010024010
:10094C000000424280044242080000200070004037
:10095C00224C636803F00C03082B3FF4E2AE002337
:10096C001F4E022A33602BD1FFF72CFC074623685D
:10097C0099011FD42B6AB3F5803F05D16268A96831
:10098C0022F400320A436260696A62680B4322F403
:10099C0074121343636001233360FFF713FC0546A5
:1009AC0023689A013FF5A7AEFFF70CFC401B022809
:1009BC00F6D9CDE6FFF706FCC01B0228D7D9C7E64F
:1009CC00FFF700FC054623689B017FF594AEFFF70B
:1009DC00F9FB401B0228F6D9BAE600BF0010024012
:1009EC006000424230B5194B87B002AC03F11005E0
:1009FC00224618685968083303C2AB421446F7D133
:100A0C0001238DF80430022311498DF805304B6811
:100A1C0003F00C02082A17D1C3F3834206A8024440
:100A2C00DB0312F8102C0CD54B680A48C3F3404377
:100A3C00504306AA134413F8143CB0FBF3F007B070
:100A4C0030BD05485043FAE70248F8E74C1500085A
:100A5C000010024000127A0000093D00544A2DE9B2
:100A6C00F0411368054603F007038B420E462AD368
:100A7C0029688C0734D4CA0747D44D4A136803F04D
:100A8C0007039E42C0F082802A684A4C12F0040F81
:100A9C0040F08780130706D563682A6923F46053F6
:100AAC0043EAC2036360FFF79DFF6368424AC3F3E6
:100ABC000313D35CD840414B18600020FFF740FB78
:100ACC000020BDE8F081136823F007030B4313608B
:100ADC00136803F007039942CAD00120BDE8F081E6
:100AEC00344B11F0040F1EBF5A6842F4E0625A6096
:100AFC00080742BF5A6842F460525A605A68A868A4
:100B0C0022F0F00202435A60B5E76A68294C012AC8
:100B1C0023681CD113F4003FDFD0636841F288389E
:100B2C0023F0030313436360FFF74CFB6B6807462A
:100B3C00012B14D1636803F00C03042B9DD0FFF739
:100B4C0041FBC01B4045F5D90320BDE8F081022ACA
:100B5C0002D113F0007FDFE713F0020FDCE7022B6A
:100B6C000FD1636803F00C03082B86D0FFF72AFB28
:100B7C00C01B4045F5D9E7E7FFF724FBC01B4045F8
:100B8C00E2D8636813F00C0FF6D176E7136823F004
:100B9C00070333431360136803F007039E429CD191
:100BAC0072E76368E96823F4E0630B43636071E701
:100BBC0000200240001002405C15000808000020D4
:100BCC0003682DE9F341D907054620D5354CE36977
:100BDC00DA0032D40127E36943F08053E361E3691F
:100BEC0003F080530193019B2F4E3368DB0526D510
:100BFC00236A13F4407336D1236A6A6823F4407372
:100C0C00134323621FB1E36923F08053E361286827
:100C1C00830706D5234AA968536823F440430B4342
:100C2C00536010F010001BD01E4AE9685368002076
:100C3C0023F480030B43536012E00027D4E733689E
:100C4C0043F480733360FFF7BDFA80463368D805F0
:100C5C00CED4FFF7B7FAA0EB08006428F6D903202E
:100C6C0002B0BDE8F0816A6802F440729342C3D0CE
:100C7C0001200E4A236A1060002023F4407110609A
:100C8C002162D907B8D5FFF79DFA41F2883806469C
:100C9C00236A9A07B0D4FFF795FA801B4045F7D921
:100CAC00DDE700BF001002400070004040044242EB
:100CBC00036A70B523F001030362036A4468826916
:100CCC000D6822F073022A438D6823F002032B4334
:100CDC000A4DA8420BD1CD6823F008032B438E6933
:100CEC004D6924F44074354323F004032C434460D1
:100CFC0082614A684263036270BD00BF002C0140F0
:100D0C00036A70B523F480730362036A4468C26992
:100D1C000D6822F073022A438D6823F4007343EAB2
:100D2C0005230B4DA8420DD1CD6823F4006343EA93
:100D3C0005238E694D6924F44054354323F48063B4
:100D4C0044EA05144460C2614A68C263036270BD20
:100D5C00002C0140036A30B523F480530362036A0C
:100D6C004468C2690D6822F4E64242EA05228D68A5
:100D7C0023F4005343EA0533064DA84202BF4D69E4
:100D8C0024F4804444EA85144460C2614A680264D5
:100D9C00036230BD002C0140704790F83C3070B5B8
:100DAC00012B4FF002031CD0012280F83D30036868
:100DBC0080F83C209A6822F47F4222F077029A60F5
:100DCC000A68402A79D019D8102A00F093800AD8E2
:100DDC00002A00F08980012380F83D30002380F840
:100DEC003C30184670BD202A00F08A80302AF2D19F
:100DFC009A6822F0700242F0370236E0702A36D040
:100E0C001BD8502A42D0602AE5D11C6A4D6824F0C8
:100E1C001004CE681C6299691A6A21F4704122F0A0
:100E2C00A00242EA051241EA063199611A629A68F7
:100E3C0022F0700242F0670217E0B2F5805F11D029
:100E4C00B2F5005FC7D18A684D689C68C9682A43AF
:100E5C0024F47F4442EA012222439A609A6842F4C5
:100E6C00804202E09A6822F007029A60B3E78A682F
:100E7C004D689C68C9682A4324F47F4442EA0122E5
:100E8C0022439A609A6842F07702EEE74C68CE688B
:100E9C00196A1D6A21F00A0125F001051D629A6983
:100EAC00214322F0F00242EA06129A6119629A6812
:100EBC0022F0700242F05702D7E74C68CE68196AEC
:100ECC001D6A21F00A0125F001051D629A69214372
:100EDC0022F0F00242EA06129A6119629A6822F034
:100EEC00700242F04702C0E79A6822F0700242F0AA
:100EFC000702BAE79A6822F0700242F01702B4E7D0
:100F0C009A6822F0700242F02702AEE71A4A036890
:100F1C0090420AD0B0F1804F07D0A2F594329042A3
:100F2C0003D002F58062904215D14A6823F0700319
:100F3C001343114A90420AD0B0F1804F07D0A2F56A
:100F4C009432904203D002F58062904203D1CA6879
:100F5C0023F4407313434A6923F080031343036063
:100F6C008B68C3620B688362034B984204BF0B69A6
:100F7C000363012343617047002C014010B5044604
:100F8C00A0B190F83D3003F0FF021BB980F83C2073
:100F9C0000F00EFA0223206884F83D30211DFFF783
:100FAC00B5FF0123002084F83D3010BD012010BD99
:100FBC0010B50446A0B190F83D3003F0FF021BB908
:100FCC0080F83C20FFF7E8FE0223206884F83D30CF
:100FDC00211DFFF79BFF0123002084F83D3010BD3D
:100FEC00012010BD036A70B523F010030362036A7D
:100FFC00446882690D6822F4E64242EA05228D6853
:10100C0023F0200343EA05130B4DA8420DD1CD6804
:10101C0023F0800343EA05138E694D6924F4406480
:10102C00354323F0400344EA8504446082614A68F6
:10103C008263036270BD00BF002C014038B590F88C
:10104C003C300446012B4FF0020025D0012384F8DC
:10105C003D0084F83C300C2A18D8DFE802F0071762
:10106C0017171E1717172F17171740002068FFF7B1
:10107C001FFE236809699A6942F008029A619A690D
:10108C0022F004029A619A690A439A6101230020B2
:10109C0084F83D3084F83C0038BD2068FFF7A2FF8F
:1010AC00236809699A6942F400629A619A6922F488
:1010BC0080629A619A6942EA0122E6E72068FFF7AA
:1010CC001FFE23680969DA6942F00802DA61DA69FD
:1010DC0022F00402DA61DA690A43DA61D6E72068A1
:1010EC00FFF738FE23680969DA6942F40062DA61B5
:1010FC00DA6922F48062DA61DA6942EA0122ECE709
:10110C0090F83C3010B5012B4FF0020318D080F84A
:10111C003D3003680C685A68496822F070025A60C6
:10112C005A6822435A609A6822F080029A609A6840
:10113C000A439A60012380F83D30002380F83C304C
:10114C00184610BD282210B594B00DEB02000021FA
:10115C0000F0E2F9142200210DEB020000F0DCF9A2
:10116C000021102201A800F0D7F94FF4803302249B
:10117C0001220B9312934FF4E0130AA80A920E92D9
:10118C0013931194FFF7A2FA0F234FF48062059387
:10119C000023214605A80793089209930694FFF7AC
:1011AC005DFC4FF4004301A801940393FFF708FD85
:1011BC0014B010BD00B593B0FEF7E6FFFFF7C2FF09
:1011CC00102200210BA800F0A7F94B4B4FF4005153
:1011DC009A694A4842F010029A619A69012602F013
:1011EC0010020192019A9A69454D42F020029A61CF
:1011FC009A69002402F020020292029A9A6942F043
:10120C0004029A619A6902F004020392039A9A69A1
:10121C0042F008029A619B69002203F008030493D0
:10122C00049BFFF749FA4FF400530B9302230BA9CD
:10123C0032480D930E930C96FFF75EF9314B28460E
:10124C002B604FF46023AC60EB61EC606C616C6004
:10125C000B940C940D942E61FFF772F80BA9284691
:10126C000D940B960C96FEF7C5FF2146102207A88D
:10127C00254D00F051F91C2221460BA8059406942B
:10128C0000F04AF9214B284685E81800AC60EC6068
:10129C002C61AC61FFF772FE4FF4805307A928460E
:1012AC000793FFF77AFD2846FFF782FE05A928462B
:1012BC0005940694FFF724FF602308220BA9284607
:1012CC000B930C940D940F94FFF7B8FE0C220BA902
:1012DC002846FFF7B3FE284600F07EF804F1804460
:1012EC0004F5883420464FF40051FFF7EAF94FF427
:1012FC00FA70FEF76DFFF5E7001002400010014098
:10130C006C000020002401402C0000200004004050
:10131C000E4B82B09A6942F001029A619A6902F00E
:10132C0001020092009ADA6942F08052DA61DB69BC
:10133C00074A03F080530193019B536823F0E06349
:10134C0043F00073536002B0704700BF00100240BE
:10135C000000014010B5044686B01022002102A8FE
:10136C0000F0DAF82268104B9A421BD103F56C435B
:10137C009A6902A942F400729A619A690B4802F4C4
:10138C0000720092009A9A6942F004029A619B6979
:10139C0003F004030193019B1F2302930323039384
:1013AC00FFF7AAF806B010BD002401400008014068
:1013BC000268084B82B09A420AD103F50333DA690A
:1013CC0042F00202DA61DB6903F002030193019B34
:1013DC0002B070470004004010B5044686B01022DD
:1013EC00002102A800F098F822680C4B9A4213D105
:1013FC0003F503339A6902A942F008029A619B69CA
:10140C00074803F008030193019B03230293022373
:10141C0003930593FFF770F806B010BD000400406D
:10142C00000C01407047FEE7FEE7FEE7FEE7704761
:10143C0070477047FEF7BABE0F4B1A6842F00102B4
:10144C001A6059680D4A0A405A601A6822F0847270
:10145C0022F480321A601A6822F480221A605A68C8
:10146C0022F4FE025A604FF41F029A604FF00062A1
:10147C00034B9A60704700BF001002400000FFF859
:10148C0000ED00E0002103E00B4B5B5843500431AE
:10149C000A480B4B42189A42F6D30A4A02E0002340
:1014AC0042F8043B084B9A42F9D3FFF7C5FF00F012
:1014BC000FF8FFF77FFE704774150008000000203E
:1014CC000C0000200C0000209C000020FEE7000017
:1014DC0070B500250C4E0D4CA41BA410A54209D1CF
:1014EC0000F022F800250A4E0A4CA41BA410A542B9
:1014FC0005D170BD56F8253098470135EEE756F802
:10150C00253098470135F2E76C1500086C1500087A
:10151C006C1500087015000803460244934200D174
:10152C00704703F8011BF9E7F8B500BFF8BC08BC1D
:10153C009E467047F8B500BFF8BC08BC9E46704785
:10154C0002030405060708090A0B0C0D0E0F1010F8
:10155C000000000000000000010203040607080957
:04156C003101000841
:041570000D01000861
:0C157400010000001000000000A24A046A
:04000005080014914A
:00000001FF
